:100000000C943E000C9448000C9448000C9448005A
:100010000C9448000C9448000C9448000C94480040
:100020000C9448000C9448000C9448000C94480030
:100030000C9448000C9448000C9448000C94480020
:100040000C9448000C9448000C9448000C94480010
:100050000C9448000C9448000C9448000C94480000
:100060000C9448000C9448000C9448000C944800F0
:100070000C9448000C9448000C94480011241FBEB6
:10008000CFEFD8E0DEBFCDBF0E944A000C946C00D9
:100090000C9400008FEF81B984B987B98AB92EE03A
:1000A00091E082E02BB998B9E3ECF9E03197F1F7F0
:1000B00000C0000088B9E1EEF4E03197F1F700C02C
:1000C000000018B8FFE33DE043E0F150304040400D
:0C00D000E1F700C00000E6CFF894FFCF7D
:00000001FF
